{
  "_format": "hh-sol-artifact-1",
  "contractName": "PhialofLife",
  "sourceName": "contracts/PhialofLife.sol",
  "abi": [
    {
      "inputs": [
        {
          "internalType": "bytes32",
          "name": "merkleroot",
          "type": "bytes32"
        },
        {
          "internalType": "address",
          "name": "_proxyRegistryAddress",
          "type": "address"
        }
      ],
      "stateMutability": "nonpayable",
      "type": "constructor"
    },
    {
      "anonymous": false,
      "inputs": [
        {
          "indexed": true,
          "internalType": "address",
          "name": "owner",
          "type": "address"
        },
        {
          "indexed": true,
          "internalType": "address",
          "name": "approved",
          "type": "address"
        },
        {
          "indexed": true,
          "internalType": "uint256",
          "name": "tokenId",
          "type": "uint256"
        }
      ],
      "name": "Approval",
      "type": "event"
    },
    {
      "anonymous": false,
      "inputs": [
        {
          "indexed": true,
          "internalType": "address",
          "name": "owner",
          "type": "address"
        },
        {
          "indexed": true,
          "internalType": "address",
          "name": "operator",
          "type": "address"
        },
        {
          "indexed": false,
          "internalType": "bool",
          "name": "approved",
          "type": "bool"
        }
      ],
      "name": "ApprovalForAll",
      "type": "event"
    },
    {
      "anonymous": false,
      "inputs": [
        {
          "indexed": true,
          "internalType": "address",
          "name": "previousOwner",
          "type": "address"
        },
        {
          "indexed": true,
          "internalType": "address",
          "name": "newOwner",
          "type": "address"
        }
      ],
      "name": "OwnershipTransferred",
      "type": "event"
    },
    {
      "anonymous": false,
      "inputs": [
        {
          "indexed": true,
          "internalType": "address",
          "name": "from",
          "type": "address"
        },
        {
          "indexed": true,
          "internalType": "address",
          "name": "to",
          "type": "address"
        },
        {
          "indexed": true,
          "internalType": "uint256",
          "name": "tokenId",
          "type": "uint256"
        }
      ],
      "name": "Transfer",
      "type": "event"
    },
    {
      "inputs": [],
      "name": "_maximumLimit",
      "outputs": [
        {
          "internalType": "uint256",
          "name": "",
          "type": "uint256"
        }
      ],
      "stateMutability": "view",
      "type": "function"
    },
    {
      "inputs": [
        {
          "internalType": "address",
          "name": "",
          "type": "address"
        }
      ],
      "name": "_presaleClaimed",
      "outputs": [
        {
          "internalType": "uint256",
          "name": "",
          "type": "uint256"
        }
      ],
      "stateMutability": "view",
      "type": "function"
    },
    {
      "inputs": [],
      "name": "_price",
      "outputs": [
        {
          "internalType": "uint256",
          "name": "",
          "type": "uint256"
        }
      ],
      "stateMutability": "view",
      "type": "function"
    },
    {
      "inputs": [
        {
          "internalType": "address",
          "name": "to",
          "type": "address"
        },
        {
          "internalType": "uint256",
          "name": "tokenId",
          "type": "uint256"
        }
      ],
      "name": "approve",
      "outputs": [],
      "stateMutability": "nonpayable",
      "type": "function"
    },
    {
      "inputs": [
        {
          "internalType": "address",
          "name": "owner",
          "type": "address"
        }
      ],
      "name": "balanceOf",
      "outputs": [
        {
          "internalType": "uint256",
          "name": "",
          "type": "uint256"
        }
      ],
      "stateMutability": "view",
      "type": "function"
    },
    {
      "inputs": [],
      "name": "baseExtension",
      "outputs": [
        {
          "internalType": "string",
          "name": "",
          "type": "string"
        }
      ],
      "stateMutability": "view",
      "type": "function"
    },
    {
      "inputs": [],
      "name": "baseURI",
      "outputs": [
        {
          "internalType": "string",
          "name": "",
          "type": "string"
        }
      ],
      "stateMutability": "view",
      "type": "function"
    },
    {
      "inputs": [
        {
          "internalType": "uint256",
          "name": "_newPrice",
          "type": "uint256"
        }
      ],
      "name": "changePrice",
      "outputs": [],
      "stateMutability": "nonpayable",
      "type": "function"
    },
    {
      "inputs": [
        {
          "internalType": "uint256",
          "name": "tokenId",
          "type": "uint256"
        }
      ],
      "name": "getApproved",
      "outputs": [
        {
          "internalType": "address",
          "name": "",
          "type": "address"
        }
      ],
      "stateMutability": "view",
      "type": "function"
    },
    {
      "inputs": [],
      "name": "getBalance",
      "outputs": [
        {
          "internalType": "uint256",
          "name": "",
          "type": "uint256"
        }
      ],
      "stateMutability": "view",
      "type": "function"
    },
    {
      "inputs": [
        {
          "internalType": "address",
          "name": "owner",
          "type": "address"
        },
        {
          "internalType": "address",
          "name": "operator",
          "type": "address"
        }
      ],
      "name": "isApprovedForAll",
      "outputs": [
        {
          "internalType": "bool",
          "name": "",
          "type": "bool"
        }
      ],
      "stateMutability": "view",
      "type": "function"
    },
    {
      "inputs": [],
      "name": "maxSupply",
      "outputs": [
        {
          "internalType": "uint256",
          "name": "",
          "type": "uint256"
        }
      ],
      "stateMutability": "view",
      "type": "function"
    },
    {
      "inputs": [],
      "name": "name",
      "outputs": [
        {
          "internalType": "string",
          "name": "",
          "type": "string"
        }
      ],
      "stateMutability": "view",
      "type": "function"
    },
    {
      "inputs": [],
      "name": "owner",
      "outputs": [
        {
          "internalType": "address",
          "name": "",
          "type": "address"
        }
      ],
      "stateMutability": "view",
      "type": "function"
    },
    {
      "inputs": [
        {
          "internalType": "uint256",
          "name": "tokenId",
          "type": "uint256"
        }
      ],
      "name": "ownerOf",
      "outputs": [
        {
          "internalType": "address",
          "name": "",
          "type": "address"
        }
      ],
      "stateMutability": "view",
      "type": "function"
    },
    {
      "inputs": [],
      "name": "paused",
      "outputs": [
        {
          "internalType": "bool",
          "name": "",
          "type": "bool"
        }
      ],
      "stateMutability": "view",
      "type": "function"
    },
    {
      "inputs": [],
      "name": "presaleM",
      "outputs": [
        {
          "internalType": "bool",
          "name": "",
          "type": "bool"
        }
      ],
      "stateMutability": "view",
      "type": "function"
    },
    {
      "inputs": [
        {
          "internalType": "address",
          "name": "account",
          "type": "address"
        },
        {
          "internalType": "uint256",
          "name": "_amount",
          "type": "uint256"
        },
        {
          "internalType": "bytes32[]",
          "name": "_proof",
          "type": "bytes32[]"
        }
      ],
      "name": "presaleMint",
      "outputs": [],
      "stateMutability": "payable",
      "type": "function"
    },
    {
      "inputs": [],
      "name": "publicM",
      "outputs": [
        {
          "internalType": "bool",
          "name": "",
          "type": "bool"
        }
      ],
      "stateMutability": "view",
      "type": "function"
    },
    {
      "inputs": [
        {
          "internalType": "uint256",
          "name": "_amount",
          "type": "uint256"
        }
      ],
      "name": "publicSaleMint",
      "outputs": [],
      "stateMutability": "payable",
      "type": "function"
    },
    {
      "inputs": [],
      "name": "renounceOwnership",
      "outputs": [],
      "stateMutability": "nonpayable",
      "type": "function"
    },
    {
      "inputs": [],
      "name": "root",
      "outputs": [
        {
          "internalType": "bytes32",
          "name": "",
          "type": "bytes32"
        }
      ],
      "stateMutability": "view",
      "type": "function"
    },
    {
      "inputs": [
        {
          "internalType": "address",
          "name": "from",
          "type": "address"
        },
        {
          "internalType": "address",
          "name": "to",
          "type": "address"
        },
        {
          "internalType": "uint256",
          "name": "tokenId",
          "type": "uint256"
        }
      ],
      "name": "safeTransferFrom",
      "outputs": [],
      "stateMutability": "nonpayable",
      "type": "function"
    },
    {
      "inputs": [
        {
          "internalType": "address",
          "name": "from",
          "type": "address"
        },
        {
          "internalType": "address",
          "name": "to",
          "type": "address"
        },
        {
          "internalType": "uint256",
          "name": "tokenId",
          "type": "uint256"
        },
        {
          "internalType": "bytes",
          "name": "data",
          "type": "bytes"
        }
      ],
      "name": "safeTransferFrom",
      "outputs": [],
      "stateMutability": "nonpayable",
      "type": "function"
    },
    {
      "inputs": [
        {
          "internalType": "address",
          "name": "operator",
          "type": "address"
        },
        {
          "internalType": "bool",
          "name": "approved",
          "type": "bool"
        }
      ],
      "name": "setApprovalForAll",
      "outputs": [],
      "stateMutability": "nonpayable",
      "type": "function"
    },
    {
      "inputs": [
        {
          "internalType": "string",
          "name": "_newBaseExtension",
          "type": "string"
        }
      ],
      "name": "setBaseExtension",
      "outputs": [],
      "stateMutability": "nonpayable",
      "type": "function"
    },
    {
      "inputs": [
        {
          "internalType": "string",
          "name": "_tokenBaseURI",
          "type": "string"
        }
      ],
      "name": "setBaseURI",
      "outputs": [],
      "stateMutability": "nonpayable",
      "type": "function"
    },
    {
      "inputs": [
        {
          "internalType": "bytes32",
          "name": "merkleroot",
          "type": "bytes32"
        }
      ],
      "name": "setMerkleRoot",
      "outputs": [],
      "stateMutability": "nonpayable",
      "type": "function"
    },
    {
      "inputs": [
        {
          "internalType": "bytes4",
          "name": "interfaceId",
          "type": "bytes4"
        }
      ],
      "name": "supportsInterface",
      "outputs": [
        {
          "internalType": "bool",
          "name": "",
          "type": "bool"
        }
      ],
      "stateMutability": "view",
      "type": "function"
    },
    {
      "inputs": [],
      "name": "symbol",
      "outputs": [
        {
          "internalType": "string",
          "name": "",
          "type": "string"
        }
      ],
      "stateMutability": "view",
      "type": "function"
    },
    {
      "inputs": [],
      "name": "togglePause",
      "outputs": [],
      "stateMutability": "nonpayable",
      "type": "function"
    },
    {
      "inputs": [],
      "name": "togglePresale",
      "outputs": [],
      "stateMutability": "nonpayable",
      "type": "function"
    },
    {
      "inputs": [],
      "name": "togglePublicSale",
      "outputs": [],
      "stateMutability": "nonpayable",
      "type": "function"
    },
    {
      "inputs": [
        {
          "internalType": "uint256",
          "name": "tokenId",
          "type": "uint256"
        }
      ],
      "name": "tokenURI",
      "outputs": [
        {
          "internalType": "string",
          "name": "",
          "type": "string"
        }
      ],
      "stateMutability": "view",
      "type": "function"
    },
    {
      "inputs": [],
      "name": "totalSupply",
      "outputs": [
        {
          "internalType": "uint256",
          "name": "",
          "type": "uint256"
        }
      ],
      "stateMutability": "view",
      "type": "function"
    },
    {
      "inputs": [
        {
          "internalType": "address payable",
          "name": "_to",
          "type": "address"
        },
        {
          "internalType": "uint256",
          "name": "_amount",
          "type": "uint256"
        }
      ],
      "name": "transfer",
      "outputs": [],
      "stateMutability": "nonpayable",
      "type": "function"
    },
    {
      "inputs": [
        {
          "internalType": "address",
          "name": "from",
          "type": "address"
        },
        {
          "internalType": "address",
          "name": "to",
          "type": "address"
        },
        {
          "internalType": "uint256",
          "name": "tokenId",
          "type": "uint256"
        }
      ],
      "name": "transferFrom",
      "outputs": [],
      "stateMutability": "nonpayable",
      "type": "function"
    },
    {
      "inputs": [
        {
          "internalType": "address",
          "name": "newOwner",
          "type": "address"
        }
      ],
      "name": "transferOwnership",
      "outputs": [],
      "stateMutability": "nonpayable",
      "type": "function"
    },
    {
      "inputs": [],
      "name": "withdrawMoney",
      "outputs": [],
      "stateMutability": "nonpayable",
      "type": "function"
    }
  ],
  "bytecode": "0x610bb8600a5560e060405260366080818152906200288460a03980516200002f91600b91602090910190620001bc565b5060408051808201909152600580825264173539b7b760d91b60209092019182526200005e91600c91620001bc565b50600d805462ffffff191690556105dc600e5560056010556611c37937e080006011553480156200008e57600080fd5b50604051620028ba380380620028ba833981016040819052620000b19162000262565b6040518060400160405280600b81526020016a506869616c6f664c69666560a81b815250604051806040016040528060038152602001621413d360ea1b8152506200010b620001056200016860201b60201c565b6200016c565b60018055815162000124906002906020850190620001bc565b5080516200013a906003906020840190620001bc565b505050600891909155600980546001600160a01b0319166001600160a01b03909216919091179055620002de565b3390565b600080546001600160a01b038381166001600160a01b0319831681178455604051919092169283917f8be0079c531659141344cd1fd0a4f28419497f9722a3daafe3b4186f6b6457e09190a35050565b828054620001ca90620002a1565b90600052602060002090601f016020900481019282620001ee576000855562000239565b82601f106200020957805160ff191683800117855562000239565b8280016001018555821562000239579182015b82811115620002395782518255916020019190600101906200021c565b50620002479291506200024b565b5090565b5b808211156200024757600081556001016200024c565b600080604083850312156200027657600080fd5b825160208401519092506001600160a01b03811681146200029657600080fd5b809150509250929050565b600181811c90821680620002b657607f821691505b60208210811415620002d857634e487b7160e01b600052602260045260246000fd5b50919050565b61259680620002ee6000396000f3fe6080604052600436106102305760003560e01c80638cc4de191161012e578063b88d4fde116100ab578063da3ef23f1161006f578063da3ef23f14610617578063e222c7f914610637578063e985e9c51461064c578063ebf0c7171461066c578063f2fde38b1461068257600080fd5b8063b88d4fde14610597578063c4ae3168146105b7578063c6682862146105cc578063c87b56dd146105e1578063d5abeb011461060157600080fd5b8063a2b40d19116100f2578063a2b40d191461050f578063a45063c01461052f578063a9059cbb1461054f578063ac4460021461056f578063b3ab66b01461058457600080fd5b80638cc4de191461047c5780638da5cb5b146104a9578063954dc3e3146104c757806395d89b41146104da578063a22cb465146104ef57600080fd5b806334393743116101bc5780636352211e116101805780636352211e146103f25780636c0360eb1461041257806370a0823114610427578063715018a6146104475780637cb647591461045c57600080fd5b8063343937431461036d57806342842e0e1461038257806355f804b3146103a257806357cfc0ec146103c25780635c975abb146103d857600080fd5b806312065fe01161020357806312065fe0146102e65780631798d58b1461030357806318160ddd14610322578063235b6ea11461033757806323b872dd1461034d57600080fd5b806301ffc9a71461023557806306fdde031461026a578063081812fc1461028c578063095ea7b3146102c4575b600080fd5b34801561024157600080fd5b50610255610250366004611e79565b6106a2565b60405190151581526020015b60405180910390f35b34801561027657600080fd5b5061027f6106f4565b6040516102619190611eee565b34801561029857600080fd5b506102ac6102a7366004611f01565b610786565b6040516001600160a01b039091168152602001610261565b3480156102d057600080fd5b506102e46102df366004611f2f565b6107ad565b005b3480156102f257600080fd5b50475b604051908152602001610261565b34801561030f57600080fd5b50600d5461025590610100900460ff1681565b34801561032e57600080fd5b506102f56108c8565b34801561034357600080fd5b506102f560115481565b34801561035957600080fd5b506102e4610368366004611f5b565b6108d8565b34801561037957600080fd5b506102e4610909565b34801561038e57600080fd5b506102e461039d366004611f5b565b61092e565b3480156103ae57600080fd5b506102e46103bd366004612028565b610949565b3480156103ce57600080fd5b506102f560105481565b3480156103e457600080fd5b50600d546102559060ff1681565b3480156103fe57600080fd5b506102ac61040d366004611f01565b610968565b34801561041e57600080fd5b5061027f6109c8565b34801561043357600080fd5b506102f5610442366004612071565b610a56565b34801561045357600080fd5b506102e4610adc565b34801561046857600080fd5b506102e4610477366004611f01565b610af0565b34801561048857600080fd5b506102f5610497366004612071565b600f6020526000908152604090205481565b3480156104b557600080fd5b506000546001600160a01b03166102ac565b6102e46104d536600461208e565b610afd565b3480156104e657600080fd5b5061027f610e78565b3480156104fb57600080fd5b506102e461050a36600461211a565b610e87565b34801561051b57600080fd5b506102e461052a366004611f01565b610e92565b34801561053b57600080fd5b50600d546102559062010000900460ff1681565b34801561055b57600080fd5b506102e461056a366004611f2f565b610e9f565b34801561057b57600080fd5b506102e4610fa0565b6102e4610592366004611f01565b610fd6565b3480156105a357600080fd5b506102e46105b2366004612158565b6111d1565b3480156105c357600080fd5b506102e4611209565b3480156105d857600080fd5b5061027f611225565b3480156105ed57600080fd5b5061027f6105fc366004611f01565b611232565b34801561060d57600080fd5b506102f5600a5481565b34801561062357600080fd5b506102e4610632366004612028565b611310565b34801561064357600080fd5b506102e461132b565b34801561065857600080fd5b506102556106673660046121d8565b611352565b34801561067857600080fd5b506102f560085481565b34801561068e57600080fd5b506102e461069d366004612071565b611422565b60006001600160e01b031982166380ac58cd60e01b14806106d357506001600160e01b03198216635b5e139f60e01b145b806106ee57506301ffc9a760e01b6001600160e01b03198316145b92915050565b60606002805461070390612206565b80601f016020809104026020016040519081016040528092919081815260200182805461072f90612206565b801561077c5780601f106107515761010080835404028352916020019161077c565b820191906000526020600020905b81548152906001019060200180831161075f57829003601f168201915b5050505050905090565b60006107918261149b565b506000908152600660205260409020546001600160a01b031690565b60006107b882610968565b9050806001600160a01b0316836001600160a01b0316141561082b5760405162461bcd60e51b815260206004820152602160248201527f4552433732313a20617070726f76616c20746f2063757272656e74206f776e656044820152603960f91b60648201526084015b60405180910390fd5b336001600160a01b038216148061084757506108478133611352565b6108b95760405162461bcd60e51b815260206004820152603e60248201527f4552433732313a20617070726f76652063616c6c6572206973206e6f7420746f60448201527f6b656e206f776e6572206e6f7220617070726f76656420666f7220616c6c00006064820152608401610822565b6108c383836114fa565b505050565b60006108d360125490565b905090565b6108e23382611568565b6108fe5760405162461bcd60e51b815260040161082290612241565b6108c38383836115c6565b610911611762565b600d805461ff001981166101009182900460ff1615909102179055565b6108c3838383604051806020016040528060008152506111d1565b610951611762565b805161096490600b906020840190611dca565b5050565b6000818152600460205260408120546001600160a01b0316806106ee5760405162461bcd60e51b8152602060048201526018602482015277115490cdcc8c4e881a5b9d985b1a59081d1bdad95b88125160421b6044820152606401610822565b600b80546109d590612206565b80601f0160208091040260200160405190810160405280929190818152602001828054610a0190612206565b8015610a4e5780601f10610a2357610100808354040283529160200191610a4e565b820191906000526020600020905b815481529060010190602001808311610a3157829003601f168201915b505050505081565b60006001600160a01b038216610ac05760405162461bcd60e51b815260206004820152602960248201527f4552433732313a2061646472657373207a65726f206973206e6f7420612076616044820152683634b21037bbb732b960b91b6064820152608401610822565b506001600160a01b031660009081526005602052604090205490565b610ae4611762565b610aee60006117bc565b565b610af8611762565b600855565b8181610b74828280806020026020016040519081016040528093929190818152602001838360200280828437600092019190915250506008546040516bffffffffffffffffffffffff193360601b16602082015290925060340190506040516020818303038152906040528051906020012061180c565b1515600114610b955760405162461bcd60e51b81526004016108229061228f565b333214610bb45760405162461bcd60e51b81526004016108229061228f565b60105485610bc133610a56565b610bcb91906122d1565b1115610c0f5760405162461bcd60e51b815260206004820152601360248201527210d85b9b9bdd08195e18d95959081b1a5b5a5d606a1b6044820152606401610822565b336001600160a01b03871614610c5d5760405162461bcd60e51b815260206004820152601360248201527213595d18599a4e88139bdd08185b1b1bddd959606a1b6044820152606401610822565b600d54610100900460ff16610cad5760405162461bcd60e51b815260206004820152601660248201527526b2ba30b3349d10283932b9b0b6329034b99027a32360511b6044820152606401610822565b600d5460ff1615610d005760405162461bcd60e51b815260206004820152601a60248201527f4d65746166693a20436f6e7472616374206973207061757365640000000000006044820152606401610822565b600e54851115610d225760405162461bcd60e51b8152600401610822906122e9565b600e54336000908152600f6020526040902054610d409087906122d1565b1115610d5e5760405162461bcd60e51b8152600401610822906122e9565b6000610d6960125490565b600a54909150610d7987836122d1565b1115610dc75760405162461bcd60e51b815260206004820152601b60248201527f4d65746166693a206d617820737570706c7920657863656564656400000000006044820152606401610822565b3486601154610dd6919061232e565b1115610e245760405162461bcd60e51b815260206004820152601e60248201527f4d65746166693a204e6f7420656e6f756768206574686572732073656e7400006044820152606401610822565b336000908152600f602052604081208054889290610e439084906122d1565b90915550600090505b86811015610e6e57610e5c611822565b80610e668161234d565b915050610e4c565b5050505050505050565b60606003805461070390612206565b6109643383836118a6565b610e9a611762565b601155565b610ea7611762565b60026001541415610efa5760405162461bcd60e51b815260206004820152601f60248201527f5265656e7472616e637947756172643a207265656e7472616e742063616c6c006044820152606401610822565b60026001556040516000906001600160a01b0384169083908381818185875af1925050503d8060008114610f4a576040519150601f19603f3d011682016040523d82523d6000602084013e610f4f565b606091505b5050905080610f975760405162461bcd60e51b81526020600482015260146024820152732330b4b632b2103a379039b2b7321022ba3432b960611b6044820152606401610822565b50506001805550565b610fa8611762565b33806108fc476040518115909202916000818181858888f19350505050158015610964573d6000803e3d6000fd5b333214610ff55760405162461bcd60e51b81526004016108229061228f565b600d5462010000900460ff1661104d5760405162461bcd60e51b815260206004820152601960248201527f4d65746166693a205075626c696353616c65206973204f4646000000000000006044820152606401610822565b600d5460ff16156110a05760405162461bcd60e51b815260206004820152601a60248201527f4d65746166693a20436f6e7472616374206973207061757365640000000000006044820152606401610822565b600081116110e65760405162461bcd60e51b815260206004820152601360248201527213595d18599a4e881e995c9bc8185b5bdd5b9d606a1b6044820152606401610822565b60006110f160125490565b600a5490915061110183836122d1565b111561114f5760405162461bcd60e51b815260206004820152601b60248201527f4d65746166693a204d617820737570706c7920657863656564656400000000006044820152606401610822565b348260115461115e919061232e565b11156111ac5760405162461bcd60e51b815260206004820152601e60248201527f4d65746166693a204e6f7420656e6f756768206574686572732073656e7400006044820152606401610822565b60005b828110156108c3576111bf611822565b806111c98161234d565b9150506111af565b6111db3383611568565b6111f75760405162461bcd60e51b815260040161082290612241565b61120384848484611975565b50505050565b611211611762565b600d805460ff19811660ff90911615179055565b600c80546109d590612206565b6000818152600460205260409020546060906001600160a01b03166112b15760405162461bcd60e51b815260206004820152602f60248201527f4552433732314d657461646174613a2055524920717565727920666f72206e6f60448201526e3732bc34b9ba32b73a103a37b5b2b760891b6064820152608401610822565b60006112bb6119a8565b905060008151116112db5760405180602001604052806000815250611309565b806112e5846119b7565b600c6040516020016112f993929190612368565b6040516020818303038152906040525b9392505050565b611318611762565b805161096490600c906020840190611dca565b611333611762565b600d805462ff0000198116620100009182900460ff1615909102179055565b60095460405163c455279160e01b81526001600160a01b03848116600483015260009281169190841690829063c45527919060240160206040518083038186803b15801561139f57600080fd5b505afa1580156113b3573d6000803e3d6000fd5b505050506040513d601f19601f820116820180604052508101906113d7919061242c565b6001600160a01b031614156113f05760019150506106ee565b6001600160a01b0380851660009081526007602090815260408083209387168352929052205460ff165b949350505050565b61142a611762565b6001600160a01b03811661148f5760405162461bcd60e51b815260206004820152602660248201527f4f776e61626c653a206e6577206f776e657220697320746865207a65726f206160448201526564647265737360d01b6064820152608401610822565b611498816117bc565b50565b6000818152600460205260409020546001600160a01b03166114985760405162461bcd60e51b8152602060048201526018602482015277115490cdcc8c4e881a5b9d985b1a59081d1bdad95b88125160421b6044820152606401610822565b600081815260066020526040902080546001600160a01b0319166001600160a01b038416908117909155819061152f82610968565b6001600160a01b03167f8c5be1e5ebec7d5bd14f71427d1e84f3dd0314c0f7b2291e5b200ac8c7c3b92560405160405180910390a45050565b60008061157483610968565b9050806001600160a01b0316846001600160a01b0316148061159b575061159b8185611352565b8061141a5750836001600160a01b03166115b484610786565b6001600160a01b031614949350505050565b826001600160a01b03166115d982610968565b6001600160a01b03161461163d5760405162461bcd60e51b815260206004820152602560248201527f4552433732313a207472616e736665722066726f6d20696e636f72726563742060448201526437bbb732b960d91b6064820152608401610822565b6001600160a01b03821661169f5760405162461bcd60e51b8152602060048201526024808201527f4552433732313a207472616e7366657220746f20746865207a65726f206164646044820152637265737360e01b6064820152608401610822565b6116aa6000826114fa565b6001600160a01b03831660009081526005602052604081208054600192906116d3908490612449565b90915550506001600160a01b03821660009081526005602052604081208054600192906117019084906122d1565b909155505060008181526004602052604080822080546001600160a01b0319166001600160a01b0386811691821790925591518493918716917fddf252ad1be2c89b69c2b068fc378daa952ba7f163c4a11628f55a4df523b3ef91a4505050565b6000546001600160a01b03163314610aee5760405162461bcd60e51b815260206004820181905260248201527f4f776e61626c653a2063616c6c6572206973206e6f7420746865206f776e65726044820152606401610822565b600080546001600160a01b038381166001600160a01b0319831681178455604051919092169283917f8be0079c531659141344cd1fd0a4f28419497f9722a3daafe3b4186f6b6457e09190a35050565b6000826118198584611ab5565b14949350505050565b600260015414156118755760405162461bcd60e51b815260206004820152601f60248201527f5265656e7472616e637947756172643a207265656e7472616e742063616c6c006044820152606401610822565b6002600155611888601280546001019055565b600061189360125490565b905061189f3382611b02565b5060018055565b816001600160a01b0316836001600160a01b031614156119085760405162461bcd60e51b815260206004820152601960248201527f4552433732313a20617070726f766520746f2063616c6c6572000000000000006044820152606401610822565b6001600160a01b03838116600081815260076020908152604080832094871680845294825291829020805460ff191686151590811790915591519182527f17307eab39ab6107e8899845ad3d59bd9653f200f220920489ca2b5937696c31910160405180910390a3505050565b6119808484846115c6565b61198c84848484611b1c565b6112035760405162461bcd60e51b815260040161082290612460565b6060600b805461070390612206565b6060816119db5750506040805180820190915260018152600360fc1b602082015290565b8160005b8115611a0557806119ef8161234d565b91506119fe9050600a836124c8565b91506119df565b60008167ffffffffffffffff811115611a2057611a20611f9c565b6040519080825280601f01601f191660200182016040528015611a4a576020820181803683370190505b5090505b841561141a57611a5f600183612449565b9150611a6c600a866124dc565b611a779060306122d1565b60f81b818381518110611a8c57611a8c6124f0565b60200101906001600160f81b031916908160001a905350611aae600a866124c8565b9450611a4e565b600081815b8451811015611afa57611ae682868381518110611ad957611ad96124f0565b6020026020010151611c29565b915080611af28161234d565b915050611aba565b509392505050565b610964828260405180602001604052806000815250611c55565b60006001600160a01b0384163b15611c1e57604051630a85bd0160e11b81526001600160a01b0385169063150b7a0290611b60903390899088908890600401612506565b602060405180830381600087803b158015611b7a57600080fd5b505af1925050508015611baa575060408051601f3d908101601f19168201909252611ba791810190612543565b60015b611c04573d808015611bd8576040519150601f19603f3d011682016040523d82523d6000602084013e611bdd565b606091505b508051611bfc5760405162461bcd60e51b815260040161082290612460565b805181602001fd5b6001600160e01b031916630a85bd0160e11b14905061141a565b506001949350505050565b6000818310611c45576000828152602084905260409020611309565b5060009182526020526040902090565b611c5f8383611c88565b611c6c6000848484611b1c565b6108c35760405162461bcd60e51b815260040161082290612460565b6001600160a01b038216611cde5760405162461bcd60e51b815260206004820181905260248201527f4552433732313a206d696e7420746f20746865207a65726f20616464726573736044820152606401610822565b6000818152600460205260409020546001600160a01b031615611d435760405162461bcd60e51b815260206004820152601c60248201527f4552433732313a20746f6b656e20616c7265616479206d696e746564000000006044820152606401610822565b6001600160a01b0382166000908152600560205260408120805460019290611d6c9084906122d1565b909155505060008181526004602052604080822080546001600160a01b0319166001600160a01b03861690811790915590518392907fddf252ad1be2c89b69c2b068fc378daa952ba7f163c4a11628f55a4df523b3ef908290a45050565b828054611dd690612206565b90600052602060002090601f016020900481019282611df85760008555611e3e565b82601f10611e1157805160ff1916838001178555611e3e565b82800160010185558215611e3e579182015b82811115611e3e578251825591602001919060010190611e23565b50611e4a929150611e4e565b5090565b5b80821115611e4a5760008155600101611e4f565b6001600160e01b03198116811461149857600080fd5b600060208284031215611e8b57600080fd5b813561130981611e63565b60005b83811015611eb1578181015183820152602001611e99565b838111156112035750506000910152565b60008151808452611eda816020860160208601611e96565b601f01601f19169290920160200192915050565b6020815260006113096020830184611ec2565b600060208284031215611f1357600080fd5b5035919050565b6001600160a01b038116811461149857600080fd5b60008060408385031215611f4257600080fd5b8235611f4d81611f1a565b946020939093013593505050565b600080600060608486031215611f7057600080fd5b8335611f7b81611f1a565b92506020840135611f8b81611f1a565b929592945050506040919091013590565b634e487b7160e01b600052604160045260246000fd5b600067ffffffffffffffff80841115611fcd57611fcd611f9c565b604051601f8501601f19908116603f01168101908282118183101715611ff557611ff5611f9c565b8160405280935085815286868601111561200e57600080fd5b858560208301376000602087830101525050509392505050565b60006020828403121561203a57600080fd5b813567ffffffffffffffff81111561205157600080fd5b8201601f8101841361206257600080fd5b61141a84823560208401611fb2565b60006020828403121561208357600080fd5b813561130981611f1a565b600080600080606085870312156120a457600080fd5b84356120af81611f1a565b935060208501359250604085013567ffffffffffffffff808211156120d357600080fd5b818701915087601f8301126120e757600080fd5b8135818111156120f657600080fd5b8860208260051b850101111561210b57600080fd5b95989497505060200194505050565b6000806040838503121561212d57600080fd5b823561213881611f1a565b91506020830135801515811461214d57600080fd5b809150509250929050565b6000806000806080858703121561216e57600080fd5b843561217981611f1a565b9350602085013561218981611f1a565b925060408501359150606085013567ffffffffffffffff8111156121ac57600080fd5b8501601f810187136121bd57600080fd5b6121cc87823560208401611fb2565b91505092959194509250565b600080604083850312156121eb57600080fd5b82356121f681611f1a565b9150602083013561214d81611f1a565b600181811c9082168061221a57607f821691505b6020821081141561223b57634e487b7160e01b600052602260045260246000fd5b50919050565b6020808252602e908201527f4552433732313a2063616c6c6572206973206e6f7420746f6b656e206f776e6560408201526d1c881b9bdc88185c1c1c9bdd995960921b606082015260800190565b6020808252601290820152712737ba1030b63637bbb2b21037b934b3b4b760711b604082015260600190565b634e487b7160e01b600052601160045260246000fd5b600082198211156122e4576122e46122bb565b500190565b60208082526025908201527f4d65746166693a20596f752063616e2774206d696e7420736f206d75636820746040820152646f6b656e7360d81b606082015260800190565b6000816000190483118215151615612348576123486122bb565b500290565b6000600019821415612361576123616122bb565b5060010190565b60008451602061237b8285838a01611e96565b85519184019161238e8184848a01611e96565b8554920191600090600181811c90808316806123ab57607f831692505b8583108114156123c957634e487b7160e01b85526022600452602485fd5b8080156123dd57600181146123ee5761241b565b60ff1985168852838801955061241b565b60008b81526020902060005b858110156124135781548a8201529084019088016123fa565b505083880195505b50939b9a5050505050505050505050565b60006020828403121561243e57600080fd5b815161130981611f1a565b60008282101561245b5761245b6122bb565b500390565b60208082526032908201527f4552433732313a207472616e7366657220746f206e6f6e20455243373231526560408201527131b2b4bb32b91034b6b83632b6b2b73a32b960711b606082015260800190565b634e487b7160e01b600052601260045260246000fd5b6000826124d7576124d76124b2565b500490565b6000826124eb576124eb6124b2565b500690565b634e487b7160e01b600052603260045260246000fd5b6001600160a01b038581168252841660208201526040810183905260806060820181905260009061253990830184611ec2565b9695505050505050565b60006020828403121561255557600080fd5b815161130981611e6356fea2646970667358221220f3d746521b3ca30b05ff0c31b183b1bff16aaa724fae12adc248e3e9fd1c020b64736f6c63430008090033697066733a2f2f516d575973475264416b6b765673564a6855596434456a4b38654537574b4e7468386875486f5262454e474d6f662f",
  "linkReferences": {},
  "deployedLinkReferences": {}
}